:100000000C94A9120C94C5120C94C5120C94C51230
:100010000C94C5120C94C5120C94C5120C94C51204
:100020000C94C5120C94C5120C94C5120C94C512F4
:100030000C94C5120C94C5120C945C170C94C51248
:100040000C94C5120C94C5120C9416170C94C5127E
:100050000C94C5120C9481170C94C5120C94C51203
:100060000C94C5120C94C5120700081E0420000849
:10007000EE0F210008DE0F220008CE0F230008BE7D
:100080000F240008AE0F2500089E0F2600088E0FD3
:100090002700087E0F2800086E0F2900085E0F2A2F
:1000A00000084E0F2B00083E0F2C00082E0F2D00CD
:1000B000081E0F2E00080E0F2F0008FE0E3000083D
:1000C000EE0E310008DE0E320008CE0E330008BE00
:1000D0000E340008AE0E3500089E0E3600088E0E57
:1000E0003700087E0E3800086E0E3900085E0E3AA2
:1000F00000084E0E3B00083E0E3C00082E0E3D0050
:10010000081E0E3E00080E0E3F0008FE0D400008BF
:10011000EE0D410008DE0D420008CE0D430008BE82
:100120000D440008AE0D4500089E0D4600088E0DDA
:100130004700087E0D4800086E0D4900085E0D4A14
:1001400000084E0D4B00083E0D4C00082E0D4D00D2
:10015000081E0D4E00080E0D4F0008FE0C50000842
:10016000EE0C510008DE0C520008CE0C530008BE05
:100170000C540008AE0C5500089E0C5600088E0C5E
:100180005700087E0C5800086E0C5900085E0C5A87
:1001900000084E0C5B00083E0C5C00082E0C5D0055
:1001A000081E0C5E00080E0C5F0008FE0B600008C5
:1001B000EE0B610008DE0B620008CE0B630008BE88
:1001C0000B640008AE0B6500089E0B6600088E0BE2
:1001D0006700087E0B6800086E0B6900085E0B6AFA
:1001E00000084E0B6B00083E0B6C00082E0B6D00D8
:1001F000081E0B6E00080E0B6F0008FE0A70000848
:10020000EE0A710008DE0A720008CE0A730008BE0A
:100210000A740008AE0A7500089E0A7600088E0A65
:100220007700087E0A7800086E0A7900085E0A7A6C
:1002300000084E0A7B00083E0A7C00082E0A7D005A
:10024000081E0A7E00080E0AA10008FE09A2000886
:10025000EE09A30008DE09A40008CE09A50008BE27
:1002600009A60008AE09A700089E09A800088E0983
:10027000A900087E09AA00086E09AB00085E09AC57
:1002800000084E09AE00083E09AF00082E09B00074
:10029000081E09B100080E09B20008FE08B30008E4
:1002A000EE08B40008DE08B50008CE08B60008BEA7
:1002B00008B70008AE08B800089E08B900088E0804
:1002C000BA00087E08BB00086E08BC00085E08BDC6
:1002D00000084E08BE00083E08BF00082E08C000F7
:1002E000081E08C100080E08C20008FE07C3000867
:1002F000EE07C40008DE07C50008CE07C60008BE2A
:1003000007C70008AE07C800089E07C900088E0787
:10031000CA00087E07CB00086E07CC00085E07CD38
:1003200000084E07CE00083E07CF00082E07D00079
:10033000081E07D100080E07D20008FE06D30008E9
:10034000EE06D40008DE06D50008CE06D60008BEAC
:1003500006D70008AE06D800089E06D900088E060B
:10036000DA00087E06DB00086E06DC00085E06DDAB
:1003700000084E06DE00083E06DF00082E06E000FC
:10038000081E06E100080E06E20008FE05E300086C
:10039000EE05E40008DE05E50008CE05E60008BE2F
:1003A00005E70008AE05E800089E05E900088E058F
:1003B000EA00087E05EB00086E05EC00085E05ED1E
:1003C00000084E05EE00083E05EF00082E05F0007F
:1003D000081E05F100080E05F20008FE04F30008EF
:1003E000EE04F40008DE04F50008CE04F60008BEB2
:1003F00004F70008AE04F800089E04F900088E0413
:10040000FA00087E04FB00086E04FC00085E04FD90
:1004100000084E04FE00083E04FF00082E04000001
:1004200000003C4281A581A599423C0000000000EB
:10043000242400004242424242261A02023C0000AA
:10044000004040405C6242424242625C40400000E8
:100450000C3000004242424242261A02023C000096
:1004600024240000424242424242463A0000000038
:1004700018240000424242424242463A0000000034
:100480000C300000424242424242463A0000000024
:10049000300C0000424242424242463A0000000014
:1004A000000000023C464A4A5252623C40000000B2
:1004B000000000001800007E00001800000000008E
:1004C000242400003C4242424242423C00000000E0
:1004D000324C00003C4242424242423C000000009A
:1004E000182400003C4242424242423C00000000CC
:1004F0000C3000003C4242424242423C00000000BC
:10050000300C00003C4242424242423C00000000AB
:10051000324C00005C624242424242420000000013
:10052000320C1422023E42424242423C0000000091
:1005300024240000180808080808083E00000000ED
:1005400018240000180808080808083E00000000E9
:100550000C300000180808080808083E00000000D9
:10056000300C0000180808080808083E00000000C9
:10057000242400003C42427E4040423C00000000F7
:10058000182400003C42427E4040423C00000000F3
:100590000C3000003C42427E4040423C00000000E3
:1005A000300C00003C42427E4040423C00000000D3
:1005B000000000003C4240404040423C0830000007
:1005C000000000003E49093F4848493E000000182D
:1005D000241800003C42023E4242463A000000001D
:1005E000242400003C42023E4242463A0000000001
:1005F000324C00003C42023E4242463A00000000BB
:10060000182400003C42023E4242463A00000000EC
:100610000C3000003C42023E4242463A00000000DC
:10062000300C00003C42023E4242463A00000000CC
:1006300000003844444858444242524C00000000F4
:1006400000404078444242447840404000000C3032
:100650000000414122221408080808080000242450
:1006600000004242424242424242423C00001824C0
:1006700000004242424242424242423C00000C30B0
:1006800000004242424242424242423C0000300CA0
:1006900000004242424242424242423C00000000CC
:1006A00000023A44464A4A525262225C400000002C
:1006B000000000000042241824420000000024240E
:1006C00000003C42424242424242423C0000324C24
:1006D00000003C42424242424242423C0000182456
:1006E00000003C42424242424242423C00000C3046
:1006F00000003C42424242424242423C0000300C36
:1007000000003C42424242424242423C0000324CE3
:10071000000042626252524A4A46464200000000CD
:10072000000078444242F2424242447800002424CD
:1007300000003E08080808080808083E00001824C1
:1007400000003E08080808080808083E00000C30B1
:1007500000003E08080808080808083E00001806BF
:1007600000003E08080808080808083E0000242485
:1007700000007E4040407C404040407E0000182405
:1007800000007E4040407C404040407E00000C30F5
:1007900000007E4040407C404040407E0000300CE5
:1007A00000007E4040407C404040407E0000000011
:1007B00000003C42424040404042423C0830000081
:1007C00000001F2848487F484848484F0000182428
:1007D000180018242442427E42424242000024244F
:1007E000000018242442427E424242420000324C21
:1007F000000018242442427E424242420000182453
:10080000000018242442427E4242424200000C3042
:10081000000018242442427E424242420000300C32
:10082000000018242442427E42424242000000005E
:1008300000001010001010204042423C0000000058
:100840000000621224186812162A4E4200000000AE
:1008500000002262242828141A22444E00000000BE
:100860000000226224282812162A4E4200000000AE
:1008700000000048482424122424484800000000B6
:100880001C2222221C003E0000000000000000008C
:10089000001030501010107C00000000000000001C
:1008A0000000000000000000000000000830000010
:1008B0000000000000001818000000000000000008
:1008C00000003F7A7A7A3A0A0A0A0A0A0A00000005
:1008D0000000000042424242424266594080000409
:1008E00008100000000000000000000000000000F0
:1008F00000384404380444380000000000000000C0
:10090000003844041820407C000000000000000073
:1009100000000808087F080808007F0000000000A9
:10092000000018242418000000000000000000004F
:100930007E00000000000000000000000000000039
:1009400000003C42B9A5A5B9A9A5423C00000000A1
:1009500000000000000000007E0202020000000013
:100960000000001212242448242412120000000067
:100970001C021E221E003E000000000000000000BD
:1009800000003C4299A5A1A1A599423C0000242465
:100990000000000000000000000000000000000057
:1009A00000003C42403C42423C02423C000000000D
:1009B00000000808080800000808080800000000F7
:1009C0000000412214087F087F080808000000008A
:1009D000000000423C244242243C4200000000004F
:1009E00000000E1010107C1010103E61000000007E
:1009F000000008083E494848493E08080000000039
:100A0000000008080008080808080808000000009E
:100A10000031494600000000000000000000000016
:100A200000300808101008040810100808300000F2
:100A30000808080808080808080808080808000046
:100A4000000C10100808102010080810100C0000EE
:100A5000000000007E0204081020407E000000001C
:100A6000000000004242424242261A02023C0000BC
:100A700000000000424224181824424200000000F6
:100A80000000000041494949494949360000000039
:100A900000000000424242242424181800000000F4
:100AA00000000000424242424242463A000000003A
:100AB00000001010107C10101010100C000000002E
:100AC000000000003C4240300C02423C00000000AC
:100AD000000000005C6242404040404000000000D6
:100AE000000000003A4642424242463A02020000FA
:100AF000000000005C6242424242625C40400000F2
:100B0000000000003C4242424242423C00000000E1
:100B1000000000005C62424242424242000000008B
:100B20000000000076494949494949490000000050
:100B300000180808080808080808083E0000000017
:100B4000004040404448506050484442000000008B
:100B5000000404000C0404040404040448300000ED
:100B600000080800180808080808083E00000000EF
:100B7000004040405C62424242424242000000006B
:100B8000000000023A44444438203C42423C000009
:100B9000000C1010107C101010101010000000003D
:100BA000000000003C42427E4040423C0000000009
:100BB000000202023A4642424242463A0000000027
:100BC000000000003C4240404040423C0000000029
:100BD000004040405C6242424242625C00000000D1
:100BE000000000003C42023E4242463A0000002023
:100BF00010080000000000000000000000000000DD
:100C00000000000000000000000000007F00000065
:100C10001824420000000000000000000000000056
:100C20000070101010101010101010107000000044
:100C300000004040201010080804020200000000DC
:100C4000000E080808080808080808080E00000038
:100C500000007E02020408102040407E00000000D8
:100C60000000414122221408080808080000000082
:100C700000004242242418182424424200000000AC
:100C80000000424242425A5A666642420000000058
:100C900000004141412222221414080800000000F3
:100CA00000004242424242424242423C00000000B6
:100CB00000007F080808080808080808000000006D
:100CC00000003C424240300C0242423C0000000026
:100CD00000007C4242427C48444442420000000002
:100CE00000003C4242424242425A663C030000003D
:100CF00000007C4242427C404040404000000000F6
:100D000000003C42424242424242423C000000005B
:100D1000000042626252524A4A46464200000000C7
:100D20000000424266665A5A4242424200000000B7
:100D300000004040404040404040407E00000000F5
:100D400000004244485060605048444200000000A7
:100D500000001F040404040404444438000000009C
:100D600000003E08080808080808083E00000000C7
:100D70000000424242427E424242424200000000A3
:100D800000003C424240404E4242463A00000000D1
:100D900000007E4040407C40404040400000000059
:100DA00000007E4040407C404040407E000000000B
:100DB000000078444242424242424478000000002F
:100DC00000003C42424040404042423C00000000A3
:100DD00000007C4242427C424242427C00000000D1
:100DE000000018242442427E424242420000000099
:100DF00000001C224A565252524E201E0000000093
:100E000000003C42420204080800080800000000FC
:100E100000000040201008040810204000000000DE
:100E200000000000007E0000007E000000000000C6
:100E30000000000204081020100804020000000056
:100E4000000000001818000000180808100000003A
:100E50000000000018180000001818000000000032
:100E600000003C4242423E02020204380000000000
:100E700000003C4242423C424242423C00000000F0
:100E800000007E02020404040808080800000000B4
:100E900000001C2040407C424242423C00000000D6
:100EA00000007E4040407C020202423C0000000004
:100EB0000000040C142444447E04040400000000D8
:100EC00000003C4242021C020242423C0000000080
:100ED00000003C4242020C102040407E0000000016
:100EE00000000818280808080808083E000000004C
:100EF0000000182442464A526242241800000000B2
:100F00000000020204080810102040400000000009
:100F100000000000000000000000181800000000A1
:100F2000000000000000003C000000000000000085
:100F30000000000000000000000018080810000079
:100F4000000000000808087F0808080000000000F2
:100F50000000000008492A1C2A490800000000007F
:100F600000201010080808080808101020000000D1
:100F700000040808101010101010080804000000E9
:100F80000808080800000000000000000000000041
:100F900000001C2222141829454246390000000096
:100FA0000000314A4A34080816292946000000008A
:100FB0000000083E4948380E09493E08000000007C
:100FC00000001212127E24247E48484800000000CF
:100FD0002222222200000000000000000000000089
:100FE00000000808080808080800080800000000B9
:100FF00000000000000000000000000000002000D1
:1010000018AA242100103A242300205A2325002066
:101010007A222A0018D2212B00182A212C0010BA7B
:10102000202D001812202E0010A21F2F0020C21EFB
:10103000300020E21D310020021D320020221C332E
:101040000020421B340020621A350020821936002D
:1010500020A218370020C217380020E216390020DD
:1010600002163A001092153B001022153C00204257
:10107000143D002062133E002082123F0018DA1156
:10108000400020FA10B000108A100000000000009C
:1010900000000000000000000000000007C01FF07A
:1010A0003FF8783C701CE00EE00EE00EE00EE00E23
:1010B000701C783C3FF81FF007C0000000000000E3
:1010C0000000000000000000000000000000000020
:1010D0000000000000000000000000000000000010
:1010E0000000000000000000000000000000000000
:1010F00000000000000000000000000000000000F0
:1011000000000000000000000000000000000000DF
:1011100000000000000000000000000000000000CF
:10112000000000000000000000000001FE00000FB1
:10113000FF80001FFFC0007F03E000FC00F001F013
:10114000007801E0003803C0003C07C0001C0780A5
:10115000001C07801F1C0F007FDC0F00FFFC0F012D
:10116000F0FC1E03E07C1E03C03C1E07C03C1E07B3
:10117000801C1E07801C1E07801C1E07801C1E076B
:10118000801C1E07801C1E07C03C1E03C03C0F03B2
:10119000E07C0F01F0FC0F00FFFC0F807FDC07807C
:1011A0001F1C07C0000003C0000003E0000001F0A6
:1011B000000000F80000007E0000003F8040000FAB
:1011C000FFE00007FFE000007F800000000000005B
:1011D000000000000000000000000000000000000F
:1011E00000000000000000000000000000000000FF
:1011F000000000000001FE0007FF801FFFE03FFF2E
:10120000E03F03F03800F820007800007800007814
:101210000000780000F80000F00001F00003E0009A
:1012200007E0000FC0001F80003F00007C00007836
:101230000000F80000F00000F00000F00000F000F6
:1012400000F00000F00000000000000000000000BE
:10125000F00000F00000F00000F00000F00000F0EE
:10126000000000000000000000000000000000007E
:10127000000000000000000000000000000000006E
:10128000000000000000000000000000000000005E
:10129000000000000000000000000000000000004E
:1012A000000000000000000000000000000000003E
:1012B000000000000000000000000000000000002E
:1012C00000000000000000000000080000000F0007
:1012D00000000FE000000FF8000007FF000000FF13
:1012E000C000003FF8000007FF000000FFC0000042
:1012F0001FF8000007F8000000F8000007F80000E1
:101300001FF80000FFC00007FF00003FF80000FFCB
:10131000C00007FF00000FF800000FE000000F0002
:1013200000000800000000000000000000000000B5
:1013300000000000000000000000000000000000AD
:10134000000000000000000000000000000000009D
:10135000000000000000000000000000000000008D
:10136000000000000000000000000000000000007D
:10137000000000000000000000000000000000006D
:10138000000000000000000000000000000000005D
:10139000000000000000000000000000000000004D
:1013A000000000000000000000000000000000003D
:1013B00000000000000000000000000000000FFF1F
:1013C000FFF80FFFFFF80FFFFFF80FFFFFF8000017
:1013D000000000000000000000000000000000000D
:1013E0000000000000000FFFFFF80FFFFFF80FFFE5
:1013F000FFF80FFFFFF800000000000000000000F1
:1014000000000000000000000000000000000000DC
:1014100000000000000000000000000000000000CC
:1014200000000000000000000000000000000000BC
:1014300000000000000000000000000000000000AC
:10144000000000000000000000000000000000009C
:10145000000000000000000000000000000000008C
:10146000000000000000000000000000000000007C
:10147000000000000000000000000000000000006C
:101480000000000000000000000000000008000054
:101490000078000003F800000FF800007FF0000162
:1014A000FF80000FFE00007FF00001FF80000FFCB6
:1014B00000000FF000000F8000000FF000000FFC94
:1014C000000001FF8000007FF000000FFE0000011F
:1014D000FF8000007FF000000FF8000003F800001C
:1014E000007800000008000000000000000000007C
:1014F00000000000000000000000000000000000EC
:1015000000000000000000000000000000000000DB
:1015100000000000000000000000000000000000CB
:1015200000000000000000000000000000000000BB
:1015300000000000000000000000000000000000AB
:101540000000000000000000000007E007E007E0E6
:1015500007E007E007E007E00000000000000000EF
:10156000000000000000000000000000000007E094
:1015700007E007E007E007E007E007C00FC00F80C3
:101580000F800F800F001F001E00000000000000F1
:10159000000000000000000000000000000000004B
:1015A000000000000000000000000000000000003B
:1015B0000000000000000000000007E007E007E076
:1015C00007E007E007E007E000000000000000007F
:1015D000000000000000000000000000000007E024
:1015E00007E007E007E007E007E007E00000000091
:1015F00000000000000000000000000000000000EB
:1016000000000000000000000000000000000000DA
:1016100000000000000000000000000000000000CA
:10162000000000000000000FF000003FFC00007F01
:10163000FE0000FFFF0001F81F8003E00FC003C0A1
:1016400007C003C003E0078003E0078001E00780D4
:1016500001E0078001F0078001F0078001F00780BA
:1016600001F0078003F003C003F003C007F003E0BC
:101670000FF001F81FF000FFFEF0007FFCF0003FCC
:10168000F8F0000FE0F0000000F0000001E00000C2
:1016900001E0000001E0000003E0000003C00000E2
:1016A00007C000000F8000C03F0000FFFF0000FFE8
:1016B000FE0000FFF800003FE00000000000000016
:1016C000000000000000000000000000000000001A
:1016D000000000000000000000000000000000000A
:1016E00000000000000000000000000000000000FA
:1016F00000000000000000000000000000000000EA
:101700000000000000000007F000003FFE00007F26
:10171000FF0000FFFF8001F80FC001F007C003E0E9
:1017200003E003C001E003C001E003C001E003C027
:1017300001E003C001E001E003C001F007C000F8D0
:101740000F80007FFF00001FFC00003FFE0000FF35
:10175000FF8001F80FC001E003C003C001E003C037
:1017600001E0078000F0078000F0078000F00780AC
:1017700000F0078000F0078000F007C001F003C010
:1017800001E003E003E001F80FC001FFFFC000FF2C
:10179000FF80003FFE00000FF80000000000000086
:1017A0000000000000000000000000000000000039
:1017B0000000000000000000000000000000000029
:1017C0000000000000000000000000000000000019
:1017D0000000000000000000000000000000000009
:1017E0000000000000000000000007FFFFF007FFFE
:1017F000FFF007FFFFF007FFFFE0000001E000003F
:1018000003E0000003C0000007C0000007800000E4
:10181000078000000F0000000F0000001F00000004
:101820001E0000003E0000003C0000003C000000E4
:101830007C00000078000000F8000000F0000000CC
:10184000F0000001E0000001E0000003E000000300
:10185000C0000003C0000007800000078000000FE8
:101860008000000F0000001F0000001E0000001E8E
:101870000000003E0000000000000000000000002A
:101880000000000000000000000000000000000058
:101890000000000000000000000000000000000048
:1018A0000000000000000000000000000000000038
:1018B0000000000000000000000000000000000028
:1018C0000000000000000003FE00000FFF80003F4A
:1018D000FF80007FFF80007E018000F8000001F0A3
:1018E000000001E0000003E0000003C0000003C0AE
:1018F000000003C00000078000000783F800078F86
:10190000FE00079FFF0007BFFF8007FC0FC007F81E
:1019100003E007F001E007E001E007E000F007C0A6
:1019200000F007C000F007C000F007C000F003C0DF
:1019300000F003C000F003E000F003E001E001F07C
:1019400001E001F803E000FC0FC0007FFF80003FD2
:10195000FF00001FFE000007F8000000000000006C
:101960000000000000000000000000000000000077
:101970000000000000000000000000000000000067
:101980000000000000000000000000000000000057
:101990000000000000000000000000000000000047
:1019A0000000000000000000000001FFFFC001FF78
:1019B000FFC001FFFFC001FFFFC001E0000001E028
:1019C000000001E0000001E0000001E0000001E093
:1019D000000001E0000001E0000001EFF00001FF65
:1019E000FC0001FFFF0001FFFF8001E01FC00100BC
:1019F00007C0000003E0000001E0000001F000006B
:101A000000F0000000F0000000F0000000F0000016
:101A100000F0000000F0000001F0000001E0040010
:101A200003E0070007C007E01FC007FFFF8007FFB4
:101A3000FF0003FFFC00007FE0000000000000004A
:101A40000000000000000000000000000000000096
:101A50000000000000000000000000000000000086
:101A60000000000000000000000000000000000076
:101A70000000000000000000000000000000000066
:101A80000000000000000000000000007E000000D8
:101A90007E000000FE000000FE000001DE000003EA
:101AA000DE0000039E0000079E00000F1E00000FD6
:101AB0001E00001E1E00001C1E00003C1E000078C0
:101AC0001E0000781E0000F01E0000F01E0001E065
:101AD0001E0003C01E0003C01E0007801E000780FA
:101AE0001E000F001E000FFFFFF00FFFFFF00FFFA3
:101AF000FFF00FFFFFF000001E0000001E000000BE
:101B00001E0000001E0000001E0000001E0000005D
:101B10001E0000001E000000000000000000000089
:101B200000000000000000000000000000000000B5
:101B300000000000000000000000000000000000A5
:101B40000000000000000000000000000000000095
:101B50000000000000000000000000000000000085
:101B6000000000000000001FF00000FFFC0003FF69
:101B7000FF0003FFFF8003E01FC0020007C000005A
:101B800003E0000001E0000001E0000001E00000CF
:101B900001E0000001E0000003C0000007C00000F9
:101BA0001F80001FFF00001FFE00001FFE00001F1F
:101BB000FF0000001FC0000007C0000003E000009D
:101BC00001E0000000F0000000F0000000F0000064
:101BD00000F0000000F0000000F0000001F0040040
:101BE00003E0070007E007E01FC007FFFF8007FFD3
:101BF000FF0003FFFE00003FF000000000000000B7
:101C000000000000000000000000000000000000D4
:101C100000000000000000000000000000000000C4
:101C200000000000000000000000000000000000B4
:101C300000000000000000000000000000000000A4
:101C4000000000000000001FF80001FFFF0003FF7C
:101C5000FF8003FFFFC003F807E003C001F00200AC
:101C600000F0000000F8000000780000007800009C
:101C700000780000007800000078000000F8000004
:101C800000F0000001F0000003E0000007E00000A9
:101C90000FC000001F8000003F0000007E00000019
:101CA000FC000001F8000003F0000007E000000F56
:101CB000C000001F8000003F0000007E000000FC0C
:101CC000000001F0000003FFFFF803FFFFF803FF2F
:101CD000FFF803FFFFF80000000000000000000014
:101CE00000000000000000000000000000000000F4
:101CF00000000000000000000000000000000000E4
:101D000000000000000000000000000000000000D3
:101D100000000000000000000000000000000000C3
:101D2000000000000000000000000003F000003F81
:101D3000F00000FFF00000FFF00000FCF00000C029
:101D4000F0000000F0000000F0000000F0000000D3
:101D5000F0000000F0000000F0000000F0000000C3
:101D6000F0000000F0000000F0000000F0000000B3
:101D7000F0000000F0000000F0000000F0000000A3
:101D8000F0000000F0000000F0000000F000000093
:101D9000F0000000F0000000F0000000F000000083
:101DA000F0000000F000007FFFE0007FFFE0007F18
:101DB000FFE0007FFFE000000000000000000000E6
:101DC0000000000000000000000000000000000013
:101DD0000000000000000000000000000000000003
:101DE00000000000000000000000000000000000F3
:101DF00000000000000000000000000000000000E3
:101E00000000000000000007F000001FFC00003F81
:101E1000FE00007FFF0000FC1F8001F007C001F002
:101E200007C001E003C003C001E003C001E003C03C
:101E300001E003C001E0078000F0078000F00780A8
:101E400000F0078000F0078000F0078000F00780B6
:101E500000F0078000F0078000F0078000F00780A6
:101E600000F0078000F0078000F003C001E003C02D
:101E700001E003C001E003C001E001E003C001F0A4
:101E800007C001F007C000FC1F80007FFF00003F7B
:101E9000FE00001FFC000007F00000000000000032
:101EA0000000000000000000000000000000000032
:101EB0000000000000000000000000000000000022
:101EC0000000000000000000000000000000000012
:101ED0000000000000000000000000000000000002
:101EE00000000000000000000000000003C000002F
:101EF00007800000078000000F0000000F000000B6
:101F00001E0000001E0000001E0000003C0000003B
:101F10003C0000007800000078000000F0000000A5
:101F2000F0000001E0000001E0000003C000000339
:101F3000C000000780000007800000078000000F3D
:101F40000000000F0000001E0000001E0000003C0A
:101F50000000003C0000007800000078000000F065
:101F6000000000F0000001E0000001E0000001E0DE
:101F7000000003C0000003C00000078000000780CD
:101F800000000F0000000000000000000000000042
:101F90000000000000000000000000000000000041
:101FA0000000000000000000000000000000000031
:101FB0000000000000000000000000000000000021
:101FC0000000000000000000000000000000000011
:101FD0000000000000000000000000000000000001
:101FE000000000000000000000000000000007E00A
:101FF00007E007E007E007E007E007E00000000077
:1020000000000000000000000000000000000000D0
:1020100000000000000000000000000000000000C0
:1020200000000000000000000000000000000000B0
:1020300000000000000000000000000000000000A0
:102040000000000000000000000000000000000090
:102050000000000000000000000000000000000080
:1020600000000000000000000000000003FFC003AB
:10207000FFC003FFC003FFC000000000000000001D
:102080000000000000000000000000000000000050
:102090000000000000000000000000000000000040
:1020A0000000000000000000000000000000000030
:1020B0000000000000000000000000000000000020
:1020C0000000000000000000000000000000000010
:1020D0000000000000000000000000000000000000
:1020E00000000000000000000000000000000000F0
:1020F00000000000000000000000000000000000E0
:1021000000000000000007E007E007E007E007E04C
:1021100007E007C00FC00F800F800F800F001F0067
:102120001E00000000000000000000000000000091
:10213000000000000000000000000000000000009F
:10214000000000000000000000000000000000008F
:10215000000000000000000000000000000000007F
:10216000003C00003C00003C00003C00003C000043
:102170003C00003C00003C00003C00003C00FFFF35
:10218000FFFFFFFFFFFFFFFFFFFF003C00003C00E1
:10219000003C00003C00003C00003C00003C000013
:1021A0003C00003C00003C0000000000000000007B
:1021B000000000000000000000000000000000001F
:1021C000000000000000000000000000000000000F
:1021D00000000000000000000000000000000000FF
:1021E00000000000000000000000000000003800B7
:1021F00000380000380000380020380878383C7C6F
:10220000387C1F39F007BBC001FF0000FE0000FE54
:102210000001FF0007BBC01F39F07C387C78383CD8
:10222000203808003800003800003800003800006E
:10223000000000000000000000000000000000009E
:10224000000000000000000000000000000000008E
:10225000000000000000000000000000000000007E
:10226000000000000000000000000000000000006E
:10227000000000000000000000000000000000005E
:10228000000000000000000000000000000000004E
:10229000000000000000000000000000000000003E
:1022A00000000000000000F8000003FE000007FF2F
:1022B00000000F0780000E0380001C01C0001C01FD
:1022C000C0001C01C0001C01C0001C01C0000E03A6
:1022D00080000F07801807FF00F803FE03F000F8E6
:1022E0001FC000007E000003F800000FC000003F88
:1022F000000001F80F8007E03FE00F807FF004004E
:10230000F0780000E0380001C01C0001C01C000192
:10231000C01C0001C01C0001C01C0000E03800000F
:10232000F07800007FF000003FE000000F80000028
:10233000000000000000000000000000000000009D
:10234000000000000000000000000000000000008D
:10235000000000000000000000000000000000007D
:10236000000000000000000000000000000000006D
:10237000000000000000000000000000000000005D
:1023800000000003C0F00003C0E00003C1E000074C
:1023900081E0000781E0000781C0000783C0000FD3
:1023A00003C0000F03C0000F038007FFFFFE07FFFD
:1023B000FFFE07FFFFFE07FFFFFE001E0F00001CD1
:1023C0000F00003C0F00003C0E00003C1E00007897
:1023D0001E0000781E003FFFFFF03FFFFFF03FFFB1
:1023E000FFF03FFFFFF000F0380000F0780001E060
:1023F000780001E0780001E0700001E0F00003C027
:10240000F00003C0F00003C0E00003C1E0000000E2
:1024100000000000000000000000000000000000BC
:1024200000000000000000000000000000000000AC
:10243000000000000000000000000000000000009C
:10244000000000000000000000000000000003C0C9
:1024500003C003C003C003C003C003C003C003C064
:1024600003C003C003C003C003C003C003C003C054
:1024700003C003C003C003C003C003C003C0000007
:10248000000000000000000003C003C003C003C040
:1024900003C003C0000000000000000000000000B6
:1024A000000000000000000000000000000000002C
:1024B000000000000000000000000000000000001C
:1024C000000000000000000000000000000000000C
:1024D00000000000000000000000000000000000FC
:1024E00000000000000000000000000000000000EC
:1024F00000000000000000000000000000000000DC
:1025000000000000000000000000000000000000CB
:1025100000000000000000000000000000000000BB
:1025200000000000000000000000000000000000AB
:10253000000000000000000000000000000000009B
:10254000000000000000000000000000000000008B
:10255000000011241FBECFEFD8E0DEBFCDBF11E0D9
:10256000A0E0B1E0ECEAF6E302C005900D92A634DB
:10257000B107D9F721E0A6E4B1E001C01D92A43A69
:10258000B207E1F7BFD40C94541B0C940000CF9217
:10259000DF92EF92FF920F931F936A017B0190915C
:1025A0007C00907F892B80937C0080E100E010E02C
:1025B000980190917A00906490937A0093B791601B
:1025C00093BF889593B79E7F93BF60917800709179
:1025D0007900060F171F211D311D815051F7A901E8
:1025E000980162E056954795379527956A95D1F7FA
:1025F000A8E8B3E151D5DC01CB017CE0B695A79505
:10260000979587957A95D1F72FEFC216D206E206F5
:10261000F20651F4BC01CD0156E0660F771F881F0A
:10262000991F5A95D1F721C026E0C216D104E104C2
:10263000F104C0F097018601065011092109310902
:1026400046E036952795179507954A95D1F7C01A14
:10265000D10AE20AF30ABC01CD016C0D7D1D8E1D6D
:102660009F1D03C060E070E0CB011F910F91FF90B0
:10267000EF90DF90CF9008954091040150910501B3
:10268000609106017091070180E081DF6093040191
:10269000709305018093060190930701409100011A
:1026A00050910101609102017091030181E06FDF9F
:1026B00060930001709301018093020190930301E4
:1026C00008954F925F926F927F928F929F92AF92F6
:1026D000BF92CF92DF92EF92FF920F931F93CF930F
:1026E000DF938091040190910501A0910601B091C2
:1026F00007018F3F2FEF9207A207B20709F4D0C05E
:10270000209100013091010140910201509103019B
:102710002F3F6FEF36074607560709F4C1C066E042
:10272000B695A795979587956A95D1F7EC01C45F03
:10273000D140A4E6B0E0B0D46058794F8944910903
:1027400020E83FE440E050E07FD460E472E48FE0B2
:1027500090E044D46B017C0128ED30E0DE0196D49A
:1027600008E817E120E130E0A9019801261B370BAA
:10277000480B590BC701B60167D429013A01EDD0C6
:102780006B017C01F3D04B015C0180E0D1D2C83EEB
:1027900083E0D80724F56AE070E0CE0142D497FFC9
:1027A00003C09195819591099F938F937F936F9328
:1027B00089E191E09F938F931F9289E08F938CE43E
:1027C00091E09F938F938AD48DB79EB70A960FB6E8
:1027D000F8949EBF0FBE8DBF0CE411E002C00CE068
:1027E00011E0A501940160E070E080E090E0E5D2A6
:1027F00002E211E0A701960168E970E084E090E050
:10280000DCD293EE491693E05906610471042CF56D
:102810006AE070E0C20105D421E030E0059714F4CD
:1028200020E030E0620F731F7F936F938EE291E0A0
:102830009F938F931F9286E08F9386E491E09F93FE
:102840008F934CD48DB79EB708960FB6F8949EBF61
:102850000FBE8DBF06E411E002C004E111E0A50146
:10286000940160E070E088E090E0A7D204E311E01A
:10287000A701960168E970E08CE090E09ED2DF91BC
:10288000CF911F910F91FF90EF90DF90CF90BF906D
:10289000AF909F908F907F906F905F904F90C2C24B
:1028A000DF91CF911F910F91FF90EF90DF90CF902C
:1028B000BF90AF909F908F907F906F905F904F9060
:1028C0000895EF92FF920F931F93CF93DF9300D061
:1028D00000D01F92CDB7DEB77A01082F10E0262F67
:1028E000372FA0E0B0E0A017B107D8F4F901459167
:1028F0005491F90135964E155F0581F445E050E09D
:10290000B90185E591E0E1D385E0E5E5F1E0DE019F
:10291000119601900D928A95E1F70BC011969F01D7
:10292000E2CF4FE350E0CDDF29833A834B835C83D2
:102930006D8329813A814B815C816D8170E080E0FB
:1029400090E00F900F900F900F900F90DF91CF912C
:102950001F910F91FF90EF90089560913D0170914C
:102960003E0180913F0190914001089560914101A5
:1029700070914201809143019091440108955B98C8
:1029800008955B9A08955D9808955D9A08958EBDA7
:102990000DB407FEFDCF8EB508951F93CF93DF933F
:1029A000D82F192FC62FEBDF82E0F1DF812FEFDF69
:1029B0008D2FEDDF8C2FEBDFDF91CF911F91E1CFDA
:1029C000CF93DF93EC01DBDF83E0E1DF8D2FDFDFEF
:1029D0008C2FDDDF80E0DBDFC82FD3DF8C2FDF9192
:1029E000CF9108954C99FECF08955E9808955E9A10
:1029F00008958FE19EE40197F1F700C000005F9811
:102A00008FE19EE40197F1F700C000005F9A9FEF0D
:102A100020E782E0915020408040E1F700C00000B4
:102A2000E1DFE3DFB0DF82E1B2DFAFDFDBDF8FE1E9
:102A30009EE40197F1F700C00000D7DFA4DF81E03A
:102A4000A6DFD5DF89EFA3DF80E0A1DF80E09FDF95
:102A50009CDFCBDF98DF81E19ADFC9DF83E097DF7E
:102A600094DFC3DF90DF84E492DFC1DF81E08FDF9A
:102A700080E18DDF8ADFB9DF86DF85E488DFB7DFBD
:102A800080E085DF80E083DF89EF81DF80E07FDF2A
:102A90007CDFABDF78DF8CE37ADFA9DF85E077DFEF
:102AA00074DFA3DF70DF88E172DFA1DF80E86FDF12
:102AB0006CDF98CF9ADF67DF8EE469DF98DF81E013
:102AC00066DF63DF92DF5FDF8FE461DF90DF80E04E
:102AD0005EDF80E05CDF59CFCF93C82F86DF53DF06
:102AE00084E255DF84DF8C2F52DFCF914ECF7DDF24
:102AF0004ADF8CE04CDF7BDF8BE849DF8CE947DF86
:102B000086E945DF8FE043DF40DF6FDF3CDF82E2B5
:102B10003EDF6DDF84EF3BDF38DF67DF34DF80E2ED
:102B200036DF33DF5FDF61DF2EDF80E130DF5FDF45
:102B300081E02DDF2ACF2F923F924F925F926F92CA
:102B40007F928F929F92AF92BF92CF92DF92EF923D
:102B5000FF920F931F93CF93DF93CDB7DEB76097AC
:102B60000FB6F894DEBF0FBECDBF588B4F87209FA6
:102B7000A001219F500D309F500D11241A0193E0A8
:102B8000369427949A95E1F7E82EF12C44E0660FED
:102B9000771F4A95E1F7E61AF70A40E6E41A40EF94
:102BA000F40AFE01319688E0DF011D928A95E9F76B
:102BB000A90163E0569547956A95E1F75C874B87D5
:102BC000C80173E0969587957A95E1F721E030E0AA
:102BD000D901A81BB90BBE87AD8720E030E0C12C1E
:102BE000D12CA12CB12CFA87E9872215330509F4E1
:102BF00076C0EF85F889EA0DFB1DE4912901BFEF4E
:102C00004B1A5B0AC201B801F8D1892B29F04B8518
:102C10005C85A40EB51E07C0C901B801EED15B01E9
:102C20005FEFA51AB50A287FCE0101963C01DC01B1
:102C300087E090E0F0E048E050E044195509420F89
:102C4000531F9F01082E02C0359527950A94E2F77D
:102C500021703327042E01C0220F0A94EAF73C9119
:102C6000232B2D93019768F7C20187709927892B31
:102C7000A1F5460148E0840E911CC601B801BDD102
:102C8000892B41F4C114D10469F08D859E85E80E2D
:102C9000F91E08C0C60187709927892B19F491E89D
:102CA000E90EF11CA1EAEA16AFE0FA0620F4F301FE
:102CB0006081C70172DEF0E1EF1AF1082FEFC21A4E
:102CC000D20A4FEF641A740A8C149D04B1F6A985D8
:102CD000BA85E8E01D92EA95E9F7920186CF609601
:102CE0000FB6F894DEBF0FBECDBFDF91CF911F911D
:102CF0000F91FF90EF90DF90CF90BF90AF909F909B
:102D00008F907F906F905F904F903F902F9008959D
:102D1000CF93DF93C0E0D0E0CE0152DE8095DCDEC1
:102D20002196C03A8FE0D807B9F7DF91CF91089587
:102D30001F93CF93DF93182FC0E0D0E0C03A8FE00D
:102D4000D80729F0612FCE0128DE2196F7CFDF9139
:102D5000CF911F910895AF92BF92DF92EF92FF92B1
:102D60000F931F93CF93DF9300D000D01F92CDB766
:102D7000DEB7D82E5B01842FF52EA801B9019F2D57
:102D8000A0DDE42E5C836D830F2D10E0242F30E056
:102D90004C815D81B5018D2DCEDE8E2D0F900F9073
:102DA0000F900F900F90DF91CF911F910F91FF9097
:102DB000EF90DF90BF90AF9008958F929F92AF9267
:102DC000BF92CF92DF92EF92FF920F931F93CF9318
:102DD000DF936C01EB0149015A01780100E0F70132
:102DE00081917F01882389F0823CC9F3833C59F0AB
:102DF00010E0080F111DA5019401BE01C601ABDF53
:102E0000C80FD11DEBCF00E4EACFDF91CF911F9126
:102E10000F91FF90EF90DF90CF90BF90AF909F9079
:102E20008F900895E6DD46DE73DF61CE1F920F922C
:102E30000FB60F9211248F93AF93BF93EF93FF932D
:102E40008091C00087FF1EC08091A30181111AC02C
:102E50008091C600EAE5F1E001900020E9F73197A2
:102E6000EA55F140DF01A65ABE4FE834F10530F4CF
:102E70008A3021F08D3011F08C9304C01C9281E0D7
:102E80008093A301FF91EF91BF91AF918F910F902C
:102E90000FBE0F901F9018951092C50083E380938A
:102EA000C400E1ECF0E088E1808386E08093C2001A
:102EB00080818068808308951F920F920FB60F92D1
:102EC00011248F939F93AF93BF93809108019091AA
:102ED0000901A0910A01B0910B010196A11DB11D3C
:102EE0008093080190930901A0930A01B0930B010C
:102EF000BF91AF919F918F910F900FBE0F901F9038
:102F000018951895239A259A2A9A2C9A539A559A85
:102F1000569A579A5B9A5D9A5E9A5F9A54988CB5C6
:102F200081608CBD8CB580618CBD8CB580648CBD9E
:102F300084B5826084BD85B5836085BD8FEF87BD14
:102F400080916E00826080936E0083B7817F83BF23
:102F500080917C00806480937C008FE380937E006E
:102F600080917A00866080937A0080917A008860F0
:102F700080937A0080917A00806880937A008CDF59
:102F8000789482E9C82E89E0D82EE12CF12C60914A
:102F900008017091090180910A0190910B01A7012C
:102FA000960152D0672B682B692B09F465DB809161
:102FB000080190910901A0910A01B0910B01883894
:102FC0009845A140B10518F310920801109209012B
:102FD00010920A0110920B0174DBD9CFDB018F93A1
:102FE0009F935AD0BF91AF91A29F800D911DA39F37
:102FF000900DB29F900D11240895AA1BBB1B51E1A7
:1030000007C0AA1FBB1FA617B70710F0A61BB70B58
:10301000881F991F5A95A9F780959095BC01CD01FD
:10302000089597FB072E16F4009406D077FD08D07C
:10303000E4DF07FC05D03EF4909581959F4F0895FD
:10304000709561957F4F0895A1E21A2EAA1BBB1BB4
:10305000FD010DC0AA1FBB1FEE1FFF1FA217B30764
:10306000E407F50720F0A21BB30BE40BF50B661F7A
:10307000771F881F991F1A9469F76095709580953E
:1030800090959B01AC01BD01CF0108950FD0B7FF12
:103090000895821B930B089509D0A59F900DB49FAE
:1030A000900DA49F800D911D11240895A29FB00141
:1030B000B39FC001A39F700D811D1124911DB29F6C
:1030C000700D811D1124911D0895FB01DC0102C0CA
:1030D00005900D9241505040D8F70895AEE0B0E011
:1030E000E3E7F8E1B8C20D891E898F89988D26E043
:1030F0002C831A83098397FF02C080E090E8019730
:103100009E838D83AE01455E5F4F698D7A8DCE01C2
:10311000019611D04D815E8157FD0AC02F813885FF
:10312000421753070CF49A01F801E20FF31F1082C3
:103130002E96E4E0ACC2ABE0B0E0E0EAF8E17DC29C
:103140006C017B018A01FC0117821682838181FF59
:10315000BFC1CE0101963C01F6019381F70193FDB9
:10316000859193FF81917F01882309F4ADC1853258
:1031700039F493FD859193FF81917F01853221F48C
:10318000B60190E0C0D1E8CF912C212C312CFFE189
:10319000F315D8F08B3279F038F4803279F083323D
:1031A000A1F4232D20611DC08D3261F0803369F4BC
:1031B000232D216016C0832D8260382EE32DE4601C
:1031C0003E2E2AC0F32DF8601DC037FC2DC020ED27
:1031D000280F2A3040F08E32B9F436FC75C1232D09
:1031E0002064322E19C036FE06C08AE0989E200D5B
:1031F0001124922E11C0EAE02E9E200D1124222EC1
:10320000F32DF0623F2E08C08C3621F4832D8068A8
:10321000382E02C0883641F4F70193FD859193FF63
:1032200081917F018111B3CF982F9F7D9554933069
:1032300028F40C5F1F4F9FE399830DC0833631F054
:10324000833771F0833509F055C020C0F8018081C3
:1032500089830E5F1F4F88248394912C530112C0E1
:103260002801F2E04F0E511CF801A080B18036FE1B
:1032700003C0692D70E002C06FEF7FEFC50138D148
:103280004C018201F32DFF773F2E15C0280122E06B
:10329000420E511CF801A080B18036FE03C0692D9A
:1032A00070E002C06FEF7FEFC50117D14C01F32D25
:1032B000F0683F2E820133FC19C0822D90E0881601
:1032C0009906A0F4B60180E290E01DD12A94F5CFD2
:1032D000F50137FC859137FE81915F01B60190E0E1
:1032E00012D121102A9421E0821A910881149104AC
:1032F00079F7E1C0843611F0893639F5F80137FEE7
:1033000007C060817181828193810C5F1F4F08C06B
:1033100060817181072E000C880B990B0E5F1F4F87
:10332000F32DFF763F2E97FF09C0909580957095FD
:1033300061957F4F8F4F9F4FF0683F2E2AE030E01E
:10334000A3011DD1882E861844C0853731F4232D62
:103350002F7EB22E2AE030E025C0932D997FB92E22
:103360008F36C1F018F4883579F0AEC0803719F087
:10337000883721F0A9C0E92FE061BE2EB4FE0DC050
:10338000FB2DF460BF2E09C034FE0AC0292F266031
:10339000B22E06C028E030E005C020E130E002C0D7
:1033A00020E132E0F801B7FE07C0608171818281BF
:1033B00093810C5F1F4F06C06081718180E090E0B7
:1033C0000E5F1F4FA301DBD0882E8618FB2DFF77E1
:1033D0003F2E36FE0DC0232D2E7FA22E891458F4C9
:1033E00034FE0BC032FC09C0832D8E7EA82E05C092
:1033F000B82CA32C03C0B82C01C0B92CA4FE0FC05C
:10340000FE01E80DF11D8081803321F49A2D997E13
:10341000A92E09C0A2FE06C0B394B39404C08A2D9D
:10342000867809F0B394A3FC10C0A0FE06C0B214C5
:1034300080F4280C922C9B180DC0B21458F4B601DD
:1034400080E290E060D0B394F8CFB21418F42B1857
:1034500002C0982C212CA4FE0FC0B60180E390E09E
:1034600052D0A2FE16C0A1FC03C088E790E002C0C3
:1034700088E590E0B6010CC08A2D867851F0A1FE57
:1034800002C08BE201C080E2A7FC8DE2B60190E0B1
:103490003AD0891430F4B60180E390E034D09A94A5
:1034A000F8CF8A94F301E80DF11D8081B60190E018
:1034B0002AD08110F6CF222009F44ECEB60180E248
:1034C00090E021D02A94F7CFF6018681978102C03F
:1034D0008FEF9FEF2B96E2E1CCC0FC01059061508D
:1034E00070400110D8F7809590958E0F9F1F08951A
:1034F000FC016150704001900110D8F780959095C3
:103500008E0F9F1F08950F931F93CF93DF93FB019F
:10351000238121FD03C08FEF9FEF2CC022FF16C037
:1035200046815781248135814217530744F4A08195
:10353000B1819D012F5F3F4F318320838C93268182
:1035400037812F5F3F4F3783268314C08B01EC01F7
:10355000FB010084F185E02D0995892BE1F6D80166
:1035600016968D919C911797019617969C938E9322
:103570001697CE01DF91CF911F910F910895FA0117
:10358000AA27283051F1203181F1E8946F936E7FA2
:103590006E5F7F4F8F4F9F4FAF4FB1E03ED0B4E093
:1035A0003CD0670F781F891F9A1FA11D680F791FD4
:1035B0008A1F911DA11D6A0F711D811D911DA11DE5
:1035C00020D009F468943F912AE0269F11243019F5
:1035D000305D3193DEF6CF010895462F4770405D90
:1035E0004193B3E00FD0C9F7F6CF462F4F70405D3F
:1035F0004A3318F0495D31FD4052419302D0A9F79A
:10360000EACFB4E0A6959795879577956795BA9593
:10361000C9F700976105710508959B01AC010A2E59
:1036200006945795479537952795BA95C9F7620F30
:10363000731F841F951FA01D08952F923F924F92D4
:103640005F926F927F928F929F92AF92BF92CF9232
:10365000DF92EF92FF920F931F93CF93DF93CDB73B
:10366000DEB7CA1BDB0B0FB6F894DEBF0FBECDBFB3
:1036700009942A88398848885F846E847D848C8484
:103680009B84AA84B984C884DF80EE80FD800C818D
:103690001B81AA81B981CE0FD11D0FB6F894DEBF70
:0C36A0000FBECDBFED010895F894FFCFE0
:1036AC00FFFFFFFFFFFFFFFFF64E01002B39392E06
:1036BC0039C2B0002B393925002533642E2564C25C
:1036CC00B00054656D706572617475726500253358
:1036DC006425250048756D6964697479006800BEBD
:0636EC0010FE0F1C380067
:00000001FF
